:100351000009000900090009000900090009000954
:040361000009000986
:0C0365000A223F065B4F666D7D077F6F2C
:10033C00EF1FAC0670011E4C600A7D027CEFDCFEE8
:04034C00DDFC80EC68
:01035000228A
:10029300EE705BEF14B4080050549002AB75F0039A
:1002A300A4C58325F0C583730202C30202C70202F9
:1002B300CB0202CF0202D30202DB0202E30202EB11
:1002C300D2A2800ED2A28012D2A28016D2A2801A0B
:1002D300C2A2D2A3D2A48016C2A2D2A3C2A4800E69
:1002E300C2A2C2A3D2A48006C2A2C2A3C2A4742281
:1002F3002DF8E6F5807F017E0012033CE4F58022B1
:10030300752000752101752000752101E52125E087
:10031300FFE520338F82F58312014EFDACF0AF2150
:10032300AE201202930521E52170020520C3940932
:08033300E5206480948040D4B1
:01033B00229F
:100212007508037509E8750AC9750BFF780C7C002F
:100222007D007BFF7A0379517E007F141200D3E5B3
:100232000B150B7002150AAB0BAA0A9000017C0089
:100242007D0AAF03AE021200F9AF82C3740A9F2582
:10025200E0240CF8A60408A6057C007D0AAF03AED4
:10026200021200F9AA06AB07A3E582640A4583706D
:10027200CDE5091509AE08700215084E600B7B002A
:100282007A00790C12030380E8750800750964800E
:010292009ECD
:0300000002018674
:0C018600787FE4F6D8FD75812B0201CDD6
:10000300E709F608DFFA8046E709F208DFFA803EDF
:1000130088828C83E709F0A3DFFA8032E309F608CC
:10002300DFFA8078E309F208DFFA807088828C8334
:10003300E309F0A3DFFA806489828A83E0A3F608E8
:10004300DFFA805889828A83E0A3F208DFFA804CC2
:1000530080D280FA80C680D4806980F28033801099
:1000630080A680EA809A80A880DA80E280CA803302
:1000730089828A83ECFAE493A3C8C582C8CCC5837A
:10008300CCF0A3C8C582C8CCC583CCDFE9DEE7804A
:100093000D89828A83E493A3F608DFF9ECFAA9F0C9
:1000A300EDFB2289828A83ECFAE0A3C8C582C8CC1F
:1000B300C583CCF0A3C8C582C8CCC583CCDFEADE38
:1000C300E880DB89828A83E493A3F208DFF980CC9A
:1000D30088F0EF60010E4E60C388F0ED2402B40493
:1000E3000050B9F582EB2402B4040050AF2323453A
:0600F3008223900053730C
:1000F900BC000BBE0029EF8DF084FFADF022E4CCEB
:10010900F875F008EF2FFFEE33FEEC33FCEE9DECB3
:10011900984005FCEE9DFE0FD5F0E9E4CEFD22EDF9
:10012900F8F5F0EE8420D21CFEADF075F008EF2F43
:10013900FFED33FD4007985006D5F0F222C398FD34
:050149000FD5F0EA22D1
:10014E00BB0110E58229F582E5833AF583E0F5F0EF
:10015E00A3E0225009E92582F886F008E622BBFECC
:10016E000AE92582F8E2F5F008E222E5832AF58312
:08017E00E993F5F0A3E99322D7
:10019200020212E493A3F8E493A34003F68001F26F
:1001A20008DFF48029E493A3F85407240CC8C3336E
:1001B200C4540F4420C8834004F456800146F6DF3D
:1001C200E4800B0102040810204080900365E47E65
:1001D200019360BCA3FF543F30E509541FFEE49332
:1001E200A360010ECF54C025E060A840B8E493A3F9
:1001F200FAE493A3F8E493A3C8C582C8CAC583CA24
:10020200F0A3C8C582C8CAC583CADFE9DEE780BEDB
:01037100008B
:00000001FF
