:020000040800F2
:10000000481F0020ED420008D1040008D304000876
:10001000D5040008D7040008D90400080000000037
:10002000000000000000000000000000DB040008E9
:10003000DD04000800000000DF040008E1040008FF
:100040000743000807430008074300080743000868
:100050000743000807430008074300080743000858
:100060000743000807430008074300080743000848
:100070000743000807430008074300080743000838
:100080000743000807430008074300080743000828
:100090000743000807430008074300088F42000891
:1000A0000743000807430008074300080743000808
:1000B000074300082B7C000807430008074300089B
:1000C00007430008074300080743000807430008E8
:1000D0000743000869410008074300080743000878
:1000E000074300080743000807430008DFF810D063
:1000F0000AF0E6FD0048004783030008AFF30080E4
:10010000481F002038B50121082004F042FB4FF4BD
:100110008054ADF8004010208DF8030002209C4D63
:100120008DF802006946284604F049F92146284620
:1001300004F0B3F938BD974810B5017800290BD009
:100140000021017000F09EFE01F04FF800F0E7FF83
:10015000BDE8104000F075BF10BD70B50024FFF77A
:10016000D1FF03F067FF4FF4A06004F0F5FC00F04E
:1001700063FA00F0F9FC04F02BF807F01FFD4FF4D0
:10018000FA7585A1284609F0D5FD87A10A2009F056
:10019000D1FD8AA10A2009F0CDFD8DA10A2009F028
:1001A000C9FD90A10A2009F0C5FD93A10A2009F01C
:1001B000C1FD96A10A2009F0BDFD99A10A2009F010
:1001C000B9FD9CA10A2009F0B5FD00F05FFB3220CB
:1001D00003F05EFF01F057FB322004E09AA10120FA
:1001E00009F0A8FD642003F053FF02F0D2FF641C65
:1001F000E4B20246052C01D2002AEFD196A128468E
:1002000009F098FD9849002008604FF480619748F4
:100210000AF091F800F066FD06F07AF800F098FA1E
:1002200006F096F800F0F0FE05F032FD00F08CFDCF
:1002300009F044F88EA1284609F07CFD8E4806F0AE
:1002400021FABDE8704006F020BA70B50024FFF72F
:1002500059FF03F0EFFE4FF4A06004F07DFC00F0C6
:10026000EBF900F081FC03F0B3FF07F0A7FC4FF4BB
:10027000FA7579A1284609F05DFD80A10A2009F0F0
:1002800059FD83A10A2009F055FD7CA10A2009F03F
:1002900051FD84A10A2009F04DFD82A10A2009F038
:1002A00049FD7BA10A2009F045FD83A10A2009F040
:1002B00041FD00F0EBFA322003F0EAFE01F0E3FA30
:1002C000322004E060A1012009F034FD642003F035
:1002D000DFFE02F05EFF641CE4B20246052C01D290
:1002E000002AEFD15CA1284609F024FD5E490020D8
:1002F00008604FF480615D480AF01DF806F008F8C8
:1003000000F026FA06F024F800F07EFE08F0D6FF92
:1003100057A1284609F00EFD574806F0B3F9BDE88D
:10032000704006F0B2B970B5684C002560680128CD
:1003300002D0022803D005E0FFF70FFF01E0FFF72E
:1003400084FF656008F0A4FA09F018F808B106F017
:1003500012F800F07BFA08F0D5F909F00FF818B19F
:1003600005F0F1FC06F03EFA207808B1FFF7E3FE55
:1003700008F0DCFFBDE870404FF480613B4809F0B5
:10038000DABFFFF7EAFE00BFFFF7CDFFFCE7000092
:10039000000C014059010020696E69745F4F4C45A3
:1003A000443A204F4B0000002D2D2D2077656C63C3
:1003B0006F6D6520212D2D2D0000000020205F2075
:1003C00020205F202020205F20202020000000002F
:1003D000207C207C207C207C20207C5F7C202020B6
:1003E00000000000207C207C5F7C207C2020205F9F
:1003F0002020202000000000207C20205F20207C86
:1004000020207C207C20202000000000207C207CFC
:10041000207C207C20207C207C20202000000000EC
:10042000207C5F7C207C5F7C20207C5F7C202020E7
:10043000000000002020202020202020202020203C
:1004400020202020000000004D50555F4572726F43
:10045000723A256400000000696E69745F4D505562
:100460003A204F4B000000006001002030020020C5
:100470005354415254202100E380000820202020C2
:10048000202020205F20202020202020200000008D
:10049000202020202020207C5F7C20202020202065
:1004A00020000000202020202020207C207C2020F4
:1004B000202020202000000020202020202020209C
:1004C00020202020202020202000000004000020E8
:1004D0007047FEE7FEE7FEE7FEE7704770477047AC
:1004E000704700000CB500214B4801910091026853
:1004F00042F4803202604FF4A063026802F40032DA
:100500000092019A521C0192009A12B9019A9A42E1
:10051000F3D10268920333D5012100913F490A6863
:1005200042F010020A600A6822F003020A600A68B8
:1005300042F002020A6041684160416841604168DE
:1005400041F480614160416821F47C11416041685F
:1005500041F4E8114160016841F080710160016877
:100560008901FCD5416821F003014160416841F0F7
:10057000020141604168C1F381010229FAD10CBD39
:1005800000910CBD244810B5016841F001010160E3
:100590004168234A114041600168224A11400160CC
:1005A000016821F480210160416821F4FE0141606D
:1005B0004FF41F018160FFF795FF1B494FF000606A
:1005C000086010BD144910B54868184A10F00C03B3
:1005D000174803D0042B01D0082B0AD002604968C9
:1005E000134AC1F30311121D515C0268CA40026034
:1005F00010BD4A684B6802F470124FF0020413F405
:10060000803F04EB924202D04B689B0301D5094B1B
:1006100000E0064B5A43E1E7001002400020024090
:100620000000FFF8FFFFF6FE08ED00E000127A0080
:100630000C00002000093D0010B508F0ABFE1B487F
:10064000C07838B1A02009F042FAC020BDE81040BF
:1006500009F03DBAA12009F03AFAC820F6E708F0FF
:100660009BBE2DE9F041124C104F002505F1B00062
:10067000C0B209F02CFA022009F029FA102009F082
:1006800026FA00267878002814F8010B01D0C04320
:10069000C0B209F032FA761CF6B2802EF2D36D1C8D
:1006A000EDB2082DE2D3BDE8F0810000580800202B
:1006B00030020020F0B50C460546012189B00846FD
:1006C00004F070F80121052004F063F801216A4864
:1006D00003F004FF0121694803F000FF4FF40046D6
:1006E000ADF81C6018208DF81F000320644F8DF8B2
:1006F0001E0007A9384603F062FE3146384603F073
:10070000CEFEADF81450ADF810400024F503ADF85E
:100710001640ADF8124004A9284604F00DFB7020E5
:10072000ADF800000120ADF802001920ADF8060078
:10073000ADF808406946284604F037FB01212846F9
:1007400004F0ADFD0021284604F09FFD09B0F0BD86
:1007500040F29F513220ADE710B541F28831CC060E
:10076000204604F094FF0021204604F08EFD002175
:10077000204604F094FDE113414803F090FE414906
:1007800000204880087010BD2DE9F0413D4C17460F
:100790000D4622780699934250D3B5B12370A160DB
:1007A000608007F03FFA41F28832D6066060012D82
:1007B0000ED035484CF25033012F18D0022F18D0EC
:1007C000032F18D0B3FBF5F434E0BDE8F041C3E7E4
:1007D0001146304604F05BFF0021304604F055FD21
:1007E000BDE8F0414FF40041254803F058BE017ABE
:1007F00002E0417A00E0817AB3FBF5F431B10129DE
:1008000006D0022916D0032906D115E0114600E0D2
:10081000E108304604F03BFF2146304604F035FF46
:100820000021304604F02FFF3046BDE8F0410121A1
:1008300004F02BBDA108ECE76108EAE7BDE8F08110
:1008400010484088002800D00120704710B50D4C9A
:10085000608800280ED007F0E5F96168401A6188C9
:10086000884207D3FFF778FFA068002802D0BDE8D0
:100870001040004710BD00000004300000011800C7
:10088000000801402000002058080020F8B5012190
:10089000082003F07EFF4FF48070ADF800000324C1
:1008A000B04E8DF8024014258DF80350694630464D
:1008B00003F085FD7015ADF800008DF802408DF84D
:1008C00003506946304603F07AFDF8BD70B5A5487F
:1008D0004FF400741030046081150160032003F0B0
:1008E000C0FBA04D083528689E4E143634600320A6
:1008F00003F0B7FB2868800501D5002070BD346087
:10090000032003F0AEFB012070BD70B595484FF495
:10091000007414300460032003F0A3FB914D6010B9
:1009200010352860032003F09CFB2C60BDE870406C
:10093000032003F096BB70B58A4C4FF480751434D5
:100940002560032003F08DFB60152060032003F079
:1009500088FB201F0560032003F083FB2560BDE8B2
:100960007040032003F07DBB70B57E4D4FF4807462
:1009700014352C60032003F074FB60002E1F3060E0
:10098000032003F06EFB3460032003F06AFB2C604D
:10099000BDE87040032003F064BB2DE9F041714EC7
:1009A000002414364FF480753560032003F059FBA2
:1009B0006800371F3860032003F053FB3D600320BD
:1009C00003F04FFB6748083008E0641CE4B2FA2CDF
:1009D00004D9FFF79AFF0020BDE8F081016889057E
:1009E000F3D435600120F7E72DE9F0415D4E002496
:1009F00014364FF480753560032003F032FB680035
:100A0000371F3860032003F02CFB3D60032003F008
:100A100028FB5448083007E0641CE4B2FA2C03D9E0
:100A2000FFF773FF0120D7E701688905F4D435602B
:100A30000020D1E72DE9F0474A4D08241435074638
:100A40004FF400796601A5F1040813E0032003F0D8
:100A500008FB3806484602D5C8F8000000E02860C8
:100A60007806070E032003F0FCFAC8F800600320A4
:100A700003F0F7FA641EE4B22E60E7D2BDE8F08717
:100A80002DE9F047082537480024A90110300160FE
:100A9000DFF8D0908615071D804609F1080910E09F
:100AA0006006040E3E60032003F0DBFAC8F8006025
:100AB000032003F0D6FAD9F80000800501D544F0F0
:100AC00001046D1EEDB2EBD23E602046D6E770B554
:100AD00014460D460646FFF7F9FE002815D03046AD
:100AE000FFF7A8FFFFF759FF80B12846FFF7A2FFE5
:100AF000FFF753FF2046FFF79DFFFFF74EFFFFF77D
:100B000004FF052003F0C4FA012070BDFFF7FDFECD
:100B1000002070BD70B50D460446FFF7D7FE0028D3
:100B20001AD02046FFF786FFFFF737FFA8B1284607
:100B3000FFF780FFFFF731FFFFF7C8FE641CE0B24C
:100B4000FFF778FFFFF729FFFFF79AFF0446FFF74B
:100B50000BFFFFF7DAFE204670BDFFF7D6FE002040
:100B600070BD0000000C014070B586B001214FF44B
:100B7000017003F00EFE4FF4004003F0A0FD0125CC
:100B8000ADF8145000248DF8174005A92F4803F044
:100B900016FC2F4E304604F0B1FD4FF46020CDE935
:100BA00002048DF8044000948DF805408DF8105033
:100BB0006946304604F0BEFD0121304604F0E2FDF6
:100BC000304604F0FCFD3446204604F0FDFD0028CC
:100BD000FAD1204604F0FFFD204604F001FE002873
:100BE000FAD10121204604F002FE06B070BD10B516
:100BF000174C014607230122204604F01BFE012169
:100C0000204604F0F4FD0221204604F0E7FE00280F
:100C1000F9D02046BDE8104004F050BE2DE9F04167
:100C200000250E4607462C4608E03846FFF7DFFF52
:100C30000544012003F015FA641CE4B2B442F4D375
:100C4000B5FBF6F080B2BDE8F0810000000801407D
:100C50000024014000F00F01000900EB800001EBCF
:100C60004000C0B270470A21B0FBF1F2B0FBF1F3D3
:100C700001FB130000EB0210C0B2704770B50D46C7
:100C80000446FFF723FED020FFF7D4FEFFF785FED2
:100C90002046FFF7CFFEFFF780FE2846FFF7CAFE8B
:100CA000FFF77BFEBDE87040FFF72FBE10B504468E
:100CB000FFF70CFED020FFF7BDFEFFF76EFE2046CB
:100CC000FFF7B8FEFFF769FEFFF700FED120FFF740
:100CD000B1FEFFF762FEFFF7D3FE0446FFF715FEF5
:100CE000204610BD10B5FFF7D1FD1F210E20FFF7E4
:100CF000C5FF022003F0CCF900210F20FFF7BEFF53
:100D0000022003F0C5F920210E20FFF7B7FFBDE850
:100D10001040022003F0BCB910B5484CA078FFF792
:100D2000A2FFC1B20220FFF7A9FF6078FFF79BFF87
:100D3000C1B20120FFF7A2FF2078FFF794FFC1B2F4
:100D4000BDE81040002099E710B53C4CE079FFF772
:100D50008AFFC1B20620FFF791FFA079FFF783FF5A
:100D6000C1B20520FFF78AFF6079FFF77CFFC1B2AF
:100D70000420FFF783FF2079FFF775FFC1B2BDE8BC
:100D8000104003207AE72D480B21417105210171A4
:100D9000022181711621C171704770B50620FFF7DD
:100DA00085FF274CE070FFF755FF244DE8710520C3
:100DB000FFF77CFF2071FFF74DFFA8710420FFF7BC
:100DC00075FF6071FFF746FF68710220FFF76EFF45
:100DD0002070FFF73FFFA8700120FFF767FF6070EA
:100DE000FFF738FF68700020FFF760FFA070FFF783
:100DF00031FF28700320FFF759FFA071FFF72AFF8A
:100E000028711120FFF752FFE0711220FFF74EFF0B
:100E1000800900EBC00101EB0010207209F049FDD0
:100E2000084909F054FB0546E07909F042FD2946DE
:100E300009F0C3FA0449086070BD70479A010020A8
:100E4000300600200000C8422C00002010B50446E7
:100E5000FFF73CFDEC20FFF7EDFDFFF79EFD204680
:100E6000FFF7E8FDFFF799FDFFF730FDED20FFF7F5
:100E7000E1FDFFF792FDFFF703FE0446FFF745FD96
:100E8000204610BD70B58820FFF7E0FF044689209A
:100E9000FFF7DCFF44EA0020FE4C20808A20FFF7A9
:100EA000D5FF05468B20FFF7D1FF45EA0020608083
:100EB0008C20FFF7CBFF05468D20FFF7C7FF45EAE3
:100EC0000020A0808E20FFF7C1FF05468F20FFF78E
:100ED000BDFF45EA0020E0809020FFF7B7FF054600
:100EE0009120FFF7B3FF45EA002020819220FFF711
:100EF000ADFF05469320FFF7A9FF45EA002060817A
:100F00009420FFF7A3FF05469520FFF79FFF45EAD2
:100F10000020A0819620FFF799FF05469720FFF754
:100F200095FF45EA0020E0819820FFF78FFF0546F6
:100F30009920FFF78BFF45EA002020829A20FFF7D7
:100F400085FF05469B20FFF781FF45EA0020608270
:100F50009C20FFF77BFF05469D20FFF777FF45EAC2
:100F60000020A0829E20FFF771FF05469F20FFF71B
:100F70006DFF45EA0020E082A120FFF767FF2076A1
:100F8000E120FFF763FF0546E220FFF75FFF45EA38
:100F900000206083E320FFF759FF2077E420FFF76C
:100FA00055FF0546E520FFF751FF65F31F10E0836D
:100FB000E620FFF74BFF05015E20FFF747FF45EAFC
:100FC00010102084E720FFF741FF84F82200BDE8DD
:100FD0007040C82003F05CB870B50D460446FFF7BA
:100FE00075FCEC20FFF726FDFFF7D7FC2046FFF746
:100FF00021FDFFF7D2FC2846FFF71CFDFFF7CDFCD3
:10100000BDE87040FFF781BC10B5B621E020FFF7C6
:10101000E3FF142003F03CF8D020FFF717FF9D49B1
:10102000103908700421F220FFF7D6FFFF21F420C9
:10103000FFF7D2FF0421F520FFF7CEFFBDE81040F7
:1010400020E710B5FA20FFF701FF0403FB20FFF7AC
:10105000FDFE44EA0014FC20FFF7F8FE44EA1011FC
:101060008C48CA100388B0F90240A2EB4302C3EBDC
:1010700021114943B0F9043062430913D212594394
:1010800002EBA131416201EB81008030001209F0D6
:1010900015FC0022804B09F07DFB09F0BDFC7D4969
:1010A0001039886010BD2DE9F04395B08846074699
:1010B0005021684609F03FF900240098254626464D
:1010C000E94610F0FF4F24D038681399074609F01D
:1010D000C6F9724920F00040884200DA00974F4676
:1010E00057F8260009F054FC22462B4609F039FA3D
:1010F000761CF6B204460D46142EF1D30022684B3E
:1011000009F048FB09F088FCC8F8000015B0BDE8FC
:10111000F083386800903968C8F80010F6E738B5F1
:10112000F720FFF793FE0403F820FFF78FFE44EA51
:101130000014F920FFF78AFE44EA10145548594A72
:10114000416AB0F9105002EB61018A105243D31288
:101150006B43B0F90E5052134D4303EB45038589A1
:101160009B1003EB0543B0F90A506A43D510B0F960
:1011700008204A4305EB62018914C28801F5004149
:101180004A43D21330D0C4F58011A1EB233140F68D
:1011900035435943B1F1004F03D24900B1FBF2F19D
:1011A00002E0B1FBF2F14900CA085243B0F916302F
:1011B000520B5A43B0F914408B0812136343B0F931
:1011C000120002EB6332104401EB201009F087FBA0
:1011D0000022314B09F0DEFA09F01EFC2D49009087
:1011E0000C396846FFF75FFF38BD2DE9F05FFE2040
:1011F000FFF72CFE0446FD20FFF728FE44EA0029F5
:10120000244C606A09F05AFB0022274B09F04AFA85
:1012100005460E46207F09F062FB6FF0190A524620
:1012200009F027FB2A46334609F042FADFF87CB082
:1012300000225B4609F095F90746884694F822009B
:1012400009F04DFB524609F014FB2A46334609F0DB
:101250002FFA3A46434609F02BFA00225B4609F082
:1012600080F907468846B4F91A0009F027FB6FF0A9
:101270000F0209F0FEFA3A46434609F019FA07460A
:101280008846B4F9200009F019FB6FF00D0209F04F
:10129000F0FA0DE04C06002000005940CDCCCC3DCA
:1012A000000034400006FFFF00C0F2400000F03FA5
:1012B0002A46334609F0FCF905460E46B4F91E00ED
:1012C00009F0FCFA062209F0D4FA2A46334609F05E
:1012D00048F905460E46484609F0F0FA2A463346D4
:1012E00009F0E0F93A46434609F0E2F905460E46B0
:1012F000207E09F0F4FA2A46334609F0D9F96FF056
:10130000120209F0B6FA00225B4609F0CEF92A462D
:10131000334609F0CDF904460D460022574B09F03B
:1013200063FB02D20024554D08E0002213462046FC
:10133000294609F041FB01D20024254620462946D2
:1013400009F06AFB4E494F4CC8604968606809F073
:1013500086F84D4909F089F84C4909F0B8F809F0C8
:10136000CBFAA060BDE8F09F7CB5002210231146A7
:1013700047A005F040FB424D686809F009FB0246B2
:101380000B4645A101A809F039FD102332220021A6
:1013900001A805F030FB10236422002140A005F0D5
:1013A0002AFB00231A4619463EA005F024FB354CC3
:1013B000606809F0EDFA02460B4637A1684609F06D
:1013C0001DFD002332221946684605F014FB002358
:1013D0006422194635A005F00EFB6968606809F0C3
:1013E0003EF8294E314609F040F809F09EFA208077
:1013F0000022202311462EA005F0FDFA22882EA1FE
:10140000684609F0FBFC20231E220021684605F0F7
:10141000F2FA20236422002128A005F0ECFA002231
:1014200027A1684609F0EAFC00223023114625A0D6
:1014300005F0E1FA6968606809F011F8314609F0D1
:1014400014F8124909F043F809F056FA0246A06070
:101450001BA1684609F0D2FC30232D2200216846EA
:1014600005F0C9FA30235522002118A005F0C3FA6F
:10147000002213A1684609F0C1FC7CBD0000594060
:101480003C060020300000200000C842000010414F
:101490004E6F775F503A0000252E31660000000045
:1014A000685061005374645F503A000068706100D6
:1014B0006469663A0000000025376400506100004E
:1014C00025640000416C743A000000004D657465AD
:1014D0007200000030B57F280FD83F290DD801F0E9
:1014E00007050123AB409D4CC90800EBC110215CEE
:1014F0000AB1194300E09943215430BD2DE9F04F62
:101500001546DDF824B00C4606464FF000097F284A
:101510003FD83F2C3DD87F2D3BD83F2B39D8A81B37
:1015200000D5404247B2181B00D540424FFA80F820
:10153000B84509DD3846474634461D464FF0010997
:101540004FFA80F80E461346AE4205D930462E4675
:10155000054620461C4603464FEA670C9C4201D2D2
:10156000012001E04FF0FF30824610E0B9F1000F9A
:101570005A4610D031462046FFF7ACFFBCEB080CB2
:1015800003D504EB0A00C4B2BC44761CF6B2AE42EA
:10159000ECD9BDE8F08F21463046EDE710B506F0F6
:1015A00041FB6F498A68821A322A00D3886010BDD5
:1015B00010B501216B4804F078FE6B4900200870DB
:1015C00067490870012010BD65488178491E11F0F7
:1015D000FF01817004D1012181704178491C417063
:1015E000002070475E484178491E11F0FF014170AC
:1015F00004D18178491C817001214170002070471D
:101600002DE9F843564C0F464FF48075A18800230E
:10161000491C89B2E180A94200D1E380534AE6889F
:10162000A9429055A18000D1A3800026A5884FF043
:101630007F0C904615E000BF06FB07F0C0F17F006D
:1016400018F80510C0B20122FFF744FFA078291A4C
:101650008DB2FF2D03D9C0F58070284485B2761C69
:10166000B6B2BCFBF7F0B042E6D2A6880020E14655
:1016700024E0A278B11A89B2FF2903D9C2F5807299
:10168000114489B2451C0122009218F8013005FB73
:1016900007F1C1F17F017843CAB2C0F17F0018F8A9
:1016A0000610C0B2FFF72AFFA078311A8EB2FF2EC3
:1016B00003D9C0F58070304486B2A8B2B9FBF7F107
:1016C0008142D6D2BDE8F8833EB5254CE06809F0EA
:1016D0005FF902460B4626A1684609F08FFB0023FE
:1016E0001A461946684605F086F9206909F050F94E
:1016F00002460B4621A1684609F080FB0022082320
:101700001146684605F077F9606909F041F902462B
:101710000B461DA1684609F071FB002210231146FB
:10172000684605F068F9206909F0FFF8C0B26178F1
:10173000FFF766FF01203EBD10B5164804F0ABFF71
:10174000154A1649164804F02BFE002006F0B5F99C
:101750000549012008700249087010BD30020020C0
:101760003C0000208B660008DC010020740600208D
:101770007069743A252E326600000000726F6C3A70
:10178000252E3266000000007961773A252E3266F8
:1017900000000000C9160008E5150008B115000892
:1017A000C915000870B50C460546FFF78FF8D22022
:1017B000FFF740F9FFF718F950B92846FFF73AF953
:1017C000FFF712F92046FFF735F9FFF70DF918B1C9
:1017D000FFF79BF8012070BDFFF797F8002070BD60
:1017E000BC2801D3012110E0622801D302210CE0C2
:1017F0002A2801D3032108E0142801D3042104E09E
:101800000A2801D3052100E006211A20CAE710B5F5
:1018100004464FF47A70844201D9044602E0042C55
:1018200000D20424B0FBF4F0401EC1B21920FFF72F
:10183000B9FF6008BDE81040D2E710B50446FFF7D5
:1018400045F8D220FFF7F6F8FFF7CEF82046FFF76D
:10185000F1F8FFF7C9F8FFF739F8D320FFF7EAF8F6
:10186000FFF7C2F8FFF70CF90446FFF77DF8FFF722
:101870004CF8204610BDC006010E1C2092E7C006A1
:10188000010E1B208EE710B5FFF700F880216B20BA
:10189000FFF788FF642002F0FBFB00216B20FFF7BD
:1018A00081FF0320FFF7EBFF0020FFF7E4FF32206A
:1018B000FFF7ADFF00213820FFF774FF00216A20F9
:1018C000FFF770FF00212320FFF76CFF80213720F6
:1018D000FFF768FF7520FFF7B0FF692801D00120EE
:1018E00010BD01216B20FFF75DFF00216C20FFF789
:1018F00059FF3220FFF78BFF002010BD2DE9F0418A
:101900001D4614460F460646FEF7E0FF7006000E21
:10191000FFF790F8FFF768F820B1FEF7F6FF012017
:10192000BDE8F0813846FFF785F8FFF75DF8FEF770
:10193000CDFF012000EB4600C0B2FFF77BF8FFF7B8
:1019400053F809E0012C0DD0FFF79AF82870FEF744
:10195000F2FF641EE4B26D1C002CF3D1FEF7D5FF3C
:101960000020DDE7FFF78CF82870FEF7FDFFF0E7B9
:1019700008B56B46022241216920FFF7BFFFBDF881
:10198000000040BA00B208F099FF00227C4B08F03A
:1019900001FF7C4A7C4B08F0E4FD09F03DF87B49EF
:1019A00008F063FD08F0A8FF00B208BD7CB514463E
:1019B0000D4606466B46062243216920FFF79EFF2F
:1019C00000280BD1BDF8001049BA3180BDF80210D3
:1019D00049BA2980BDF8041049BA21807CBD7CB584
:1019E00014460D4606466B4606223B216920FFF74A
:1019F00085FF00280BD1BDF8001049BA3180BDF831
:101A0000021049BA2980BDF8041049BA21807CBD72
:101A10002DE9F0411E4615460F460446FEF756FFD7
:101A20006006000EFFF706F8FEF7DEFF60B93846E5
:101A3000FFF700F8FEF7D8FF00240BE0305DFEF75B
:101A4000F9FFFEF7D1FF18B1FEF75FFF012067E74E
:101A5000641CE4B2AC42F1D3FEF757FF00205FE70D
:101A60003EB5044602AA01A9684601F0DFFB204604
:101A7000009908F0F7FC4649884201D902203EBD92
:101A80004449884201DD01203EBD00203EBD3EB5F7
:101A9000044602AA01A9684601F0C8FB2046009945
:101AA00008F0E0FC3C4C012300213C4AA04201D953
:101AB000137013E03A4CA04202DD537011703EBD2A
:101AC0001378507833EA000402D0117001203EBD33
:101AD000984302D0517000203EBD117051703EBD40
:101AE0003EB502AA01A96846FFF760FFBDF90030C4
:101AF00040F6B834012200212848A34201DD82705B
:101B000014E040F6B834E34202DAC27081700EE0AD
:101B10008378C27833EA020402D0817001203EBD8E
:101B20009A4302D0C17002203EBD8170C170002076
:101B30003EBD3EB502AA01A96846FFF737FFBDF9D1
:101B4000003040F6AC54002101221448A34201DDCC
:101B500002710FE040F6AC54E34202DA42710171C7
:101B600009E00379427933EA020401D0017104E00B
:101B70009A4302D0417100203EBD01203EBD0000CD
:101B800000407540A4703D0AD74342400000C8425F
:101B90000000A0C10000A041000020C154000020AE
:101BA00000002041F8B5FF4C0146224694F824601D
:101BB000D2E9000200235D1E56B179B1022111E085
:101BC000C17B10786B460122FFF722FF68B90EE057
:101BD000A67A56B111B1617C61B902E08DF800308E
:101BE000EEE701218DF80010EAE72846F8BD9DF8E0
:101BF000000060740020F8BD38B50024E94D18E0FD
:101C00002968CA7AA24212D0497DA1420FD0007839
:101C10006B4601222146FFF771FE10B14FF0FF30F5
:101C200038BD9DF800202146DFA009F0D7F8641CDC
:101C3000E4B268680179A142E2D8002038BD0B46C1
:101C4000D84930B40A684FF0FF34D57A854206D0BF
:101C5000527D824203D049680A79824202D82046E6
:101C600030BC70470C780146204630BC0122FFF79B
:101C700045BE38B5CB4C054694F82300A84201D1A7
:101C8000002038BD0DB1302000E000208DF80000AC
:101C9000A07C28B19DF8000040F002008DF8000003
:101CA00094F8220028B19DF8000040F080008DF8E3
:101CB000000020686B460122017D60680078FFF714
:101CC000A7FE10B14FF0FF3038BD84F82350D7E79E
:101CD000F8B5054610F0700F4FF0000601D0012056
:101CE00004E015B18DF8006002E040208DF800009E
:101CF000AC4C6B4601222068817C60680078FFF75D
:101D000087FE4FF0FF3760BB9DF8000020F04000D9
:101D100020738DF80060680602D404208DF800005E
:101D2000A80605D49DF8000040F002008DF80000E0
:101D3000E80605D49DF8000040F001008DF8000091
:101D4000280705D49DF8000040F038008DF8000009
:101D500020686B460122C17C60680078FFF758FE5E
:101D600010B1A6723846F8BD25B1082D02D000206A
:101D7000FFF77FFFA5722675322002F089F9002057
:101D8000F8BDF8B5874C0546A07CA84201D10020DB
:101D9000F8BD84484FF0FF366B46D0E900104FF095
:101DA00001020979007835B3FFF7A8FDD8BB9DF88B
:101DB00000006B4620F020008DF800002068012212
:101DC000017960680078FFF723FE60BB032002F012
:101DD0005FF902208DF8000094F8220070B3822091
:101DE0002AE020686B460122017D60680078FFF7D9
:101DF0000FFEC0B92DE0FFF781FDA0B9A07AC007A2
:101E00009DF8000002D040F0200001E020F020000A
:101E10008DF8000020686B46012201796068007827
:101E2000FFF7F6FD08B13046F8BD032002F030F9A7
:101E300094F8220000B180208DF8000094F823006F
:101E40000028CED09DF8000040F030008DF8000052
:101E5000C7E7A5749BE7F8B5524C4FF0FF36A07A60
:101E600000287CD000258DF8005020686B460122A8
:101E7000C17B60680078FFF7CBFD00286FD1206838
:101E80006B460122417960680078FFF7C1FD0028A8
:101E900065D120686B460122017960680078FFF700
:101EA000B7FD00285BD194F82400E0B30C208DF836
:101EB000000020686B460122017960680078FFF716
:101EC000A7FD00287DD1322002F0E2F8C0208DF875
:101ED0000000A07AC00702D0E0208DF80000206842
:101EE0006B460122017960680078FFF791FD0028B8
:101EF00067D1607C18B102208DF8000001E08DF8F8
:101F0000005020686B460122C17B60680078FFF7B3
:101F10007FFD20BB8DF8005020686B46012241797F
:101F2000606800783DE0FFE704208DF8000020683D
:101F30006B460122017960680078FFF769FD70B98E
:101F4000A07C88B9A07AC0070ED060208DF8000070
:101F500020686B46012201796068007800E02BE080
:101F6000FFF756FD40BB01E04020EFE7322002F0D2
:101F70008FF8607C18B101208DF8000001E08DF829
:101F8000005020686B460122C17B60680078FFF733
:101F90003FFD88B92068034B417960681033012206
:101FA00000780AE05C000020252335783A202523BC
:101FB00035780D0A0000000003E0FFF729FD002836
:101FC00000D03046F8BD2DE9F041002520F0010198
:101FD000FE4C94F8240010B10020BDE8F081A07AF6
:101FE0004FF0FF3668B10840277C2074884200D04B
:101FF000354641B10120FFF7D5FDFFF72CFF38B181
:1020000027743046E9E7207D00B10120FFF7CAFDC3
:102010002846E2E738B5ED4C4FF0FF35A17A31B3F1
:10202000BC2801D3012010E0622801D302200CE07B
:102030002A2801D3032008E0142801D3042004E057
:102040000A2801D3052000E006208DF80000E07A80
:102050009DF80010884201D1002038BD20686B46F1
:102060000122817860680078FFF7D2FC08B1284629
:1020700038BD9DF80000E072EEE72DE9F843054613
:102080004FF0FF39282844D80727D04C00267DB1CF
:102090000120FFF7EEFD20208DF800004FF0010831
:1020A000012D17D0052D18D88DF8018005201FE0CF
:1020B0000020FFF7DEFD8DF800608DF801702068CC
:1020C0006B460222817C60680078FFF7A1FC00BBB0
:1020D000267529E08DF80160E8E7142D04D8022068
:1020E0008DF801000A2003E003208DF80100142080
:1020F000FFF790FF9DF801006B4607EB80108DF80D
:10210000010020680222817C60680078FFF780FC73
:1021100010B14846BDE8F8830820A072267384F801
:1021200014800020FFF74FFF0020F3E7F8B5A74D1C
:1021300004464FF0FF37A87A48B395F8240030BB27
:10214000287D4FF47A7648B164B1282C03D8E0B2E8
:10215000FFF793FF26E00020FFF78FFF042C05D246
:10216000042406E00020FFF788FFF9E7B44200D915
:102170003446B6FBF4F0401E8DF8000028686B462C
:102180000122417868680078FFF742FC08B13846C0
:10219000F8BD9DF80000401CB6FBF0F0E881400857
:1021A000FFF738FF0020F8BD38B5884C4FF0FF35F9
:1021B000A17A19B3022806D0042806D008280ED028
:1021C00010281BD10DE0002000E008208DF8000051
:1021D000607A9DF80010B0EBD10F04D005E010201C
:1021E000F4E71820F2E7002038BD20686B46012292
:1021F000C17960680078FFF70BFC08B1284638BD4C
:102200009DF80000C0086072EDE738B56F4C4FF0E4
:10221000FF35A17A31B3FA2809D0B0F5FA7F08D09A
:10222000B0F57A7F0FD0B0F5FA6F1BD10DE000202A
:1022300000E008208DF80000207A9DF80010B0EB37
:10224000D10F04D005E01020F4E71820F2E70020B9
:1022500038BD20686B460122817960680078FFF7FD
:10226000D7FB08B1284638BD9DF80000C008207291
:10227000EDE72DE9FC41554C80208DF800002068E9
:102280006B460122817C60680078FFF7C1FB4FF04C
:10229000FF37002832D1642001F0FAFE00258DF8C6
:1022A000005020686B460122817C60680078FFF74F
:1022B000AFFB002870D120686B460622817D6068E4
:1022C0000078FFF71BFB002866D19DF805009DF8FC
:1022D0000310C007400F01F0010140EA41019DF8E1
:1022E00001004FF0010600F00100014309D001296F
:1022F00005D0022915D036A008F070FD4CE0E67438
:1023000010E020686B460122C17860680078FFF712
:10231000F5FA40BB9DF8000010F00F0020D0042813
:1023200022D0E574FF2004F80A0F4FF6FF7104F87D
:10233000020C04F8010C6070A180A0712072A670DC
:1023400026766576E572A572E56025616561A576FC
:10235000E576A5834FF4FA60FFF757FF18B907E059
:10236000254808F03BFD17E024A008F037FDC6E73C
:102370000220FFF719FF78B92A20FFF74BFE58B962
:102380003220FFF7D3FE38B90020FFF71CFE18B942
:102390000020FFF7F6FC10B13846BDE8FC810020B4
:1023A000FFF796FC0020F8E770477CB50446074825
:1023B0004FF0FF35817A11F0700F32D0016840681C
:1023C0006B46097B0078062228E000005C000020B4
:1023D000556E737570706F7274656420736F667478
:1023E000776172652070726F6475637420726576B0
:1023F0002025642E0A000000D8FD000848616C66A4
:102400002073656E7369746976697479207061727E
:102410007420666F756E642E0A000000FFF76EFA76
:1024200008B128467CBDBDF8000040BA2080BDF848
:10243000020040BA6080BDF8040040BAA0800020CD
:102440007CBD7CB50446FE484FF0FF35817A090714
:1024500008D5016840686B46497B00780622FFF783
:102460004DFA08B128467CBDBDF8000040BA208076
:10247000BDF8020040BA6080BDF8040040BAA080F8
:1024800000207CBDF8B5EE4C06464FF0FF35A07A33
:1024900040B120686B460222817B60680078FFF7BC
:1024A0002DFA08B12846F8BDBDF80000646840BAAE
:1024B00005B2E08808F0FDF90746B4F9080008F015
:1024C000EFF90446284608F0EBF9214607F0C7FF6C
:1024D000394607F0FCFFDB4907F06FFF102108F0D9
:1024E00034F808F009FA30600020F8BD2DE9FC410D
:1024F00004004FF0FF3862D0206820B9606810B93E
:10250000A06800285CD0CE4D03226B466868114657
:102510000078FFF7F3F9E0BB9DF80010082000EB0E
:10252000111101F00F029DF801109DF8023000EB2F
:10253000111100EB1310236840325B0093FBF2F2A1
:1025400017B2626801F00F015200403192FBF1F1C5
:102550000EB2A16800F00F004900403091FBF0F08E
:1025600004B2686806226B4600781146FFF7C6F988
:1025700078B9BDF80000BDF8021040BABDF80420DB
:10258000384449BA52BA030A314422448DF8003023
:1025900000E014E08DF80100080A8DF80200100A2E
:1025A0008DF804008DF803108DF805206868062268
:1025B0006B4600781146FFF72BFA002800D0404602
:1025C000EBE69F49097A39B1012907D002290AD0DF
:1025D00003290BD0002103E0FA2101E04FF4FA7146
:1025E0000180002070474FF47A71F9E74FF4FA61E7
:1025F000F6E793494A7A42B1012A08D0022A0FD05D
:10260000032A0FD04FF0FF307047022200E004226F
:102610000270C97C11B11106C90D0170002070470C
:102620000822F5E71022F3E78549C97A072913D272
:10263000DFE801F01204060A0C0E1000BC2100E0D5
:1026400062210180002070472A21FAE71421F8E76F
:102650000A21F6E70521F4E70021F2E7784991F82D
:10266000242012B14FF0FF307047C989018000204B
:10267000704700210180481E70474FF0FF307047BF
:102680006F49097A41B1012908D002290AD00329EA
:102690000AD04FF0FF3070476B4900E06B49016092
:1026A000002070476A49FAE76A49F8E764494A7ABC
:1026B00042B1012A09D0022A11D0032A12D04FF0C8
:1026C000FF3070474FF4804201E041F69C72028077
:1026D000C97C11B1C2F34E010180002070474FF454
:1026E0008052F4E74FF40062F1E75549097C01702C
:1026F000002070475249897A01B101210170002000
:10270000704738B54E4A04464FF0FF35907A40B1D5
:1027100010686B46017C506802220078FFF7EEF8E3
:1027200008B1284638BDBDF8000040BA208000201E
:1027300038BD2DE9FE4F814641488846002490F877
:1027400024101E4625464FF0FF3BC9BB00213170C7
:10275000817AA9B3017C99B34A0600D502248A067E
:1027600000D5A41CCA0600D5A41C090700D5A41DC9
:10277000016882464068897A6B4600780222FFF73A
:10278000BDF8E8B9BDF8000047BAA74264D3DAF84B
:1027900004004188B7EB510F13D9DAF80010007824
:1027A0006B46497C0122FFF7A9F848B99DF8000063
:1027B000C00606D5FFF74FFB6FF00100BDE8FE8FA6
:1027C0000AE0DAF80010DAF804006B46C97A0078FB
:1027D0002246FFF793F808B15846EFE7B7FBF4F04D
:1027E0000C99401E087000203070ACB39AF810109D
:1027F00050460A07694613D5BDF80020062552BA8F
:10280000A8F80020BDF8022052BAA8F80220BDF8AE
:10281000042052BAA8F80420327842F0080232703C
:10282000A5420CD0027C520609D54A19AD1C12886B
:1028300052BAA9F80020327842F0400232700CE01F
:102840005C00002000000C420000034300008342B3
:1028500033330342333383411DE0A5420CD0027C65
:10286000920609D54A19AD1C128852BAA9F802205D
:10287000327842F020023270A5420CD09AF8100053
:10288000C00608D54819008840BAA9F80400307875
:1028900040F010003070002090E72DE9F843FB4C29
:1028A0000646174694F8240089464FF0FF3888B34F
:1028B000A07A78B320686B460222817A606800783B
:1028C000FFF71CF830BBBDF8000045BAB54202D294
:1028D000002038701EE060684188B5EB510F10D9B8
:1028E000216800786B46497C0122FFF707F888B918
:1028F0009DF80000C00604D5FFF7ADFA6FF00100A7
:1029000008E42068F2B24B46C17A60680078FEF7AE
:10291000F5FF08B1404608E4B5FBF6F0401E3870FC
:102920000020EDE7D94981F82200002070472DE909
:10293000FE4F05460120D54E8DF800004FF00008EF
:102940008DF8018030680C461746817C70686B46B4
:1029500002220078FFF75CF84FF0FF3A00287AD1A6
:10296000C82001F095FB8DF8008030686B4601228D
:10297000C17B70680078FFF74BF80028EFD1306812
:102980006B460122417970680078FFF741F8002812
:10299000E5D130686B460122817C70680078FFF7D2
:1029A00037F80028DBD130686B460122C17D7068A2
:1029B0000078FFF72DF80028D1D130686B4601224E
:1029C000017970680078FFF723F80028C7D14FF02D
:1029D0000C098DF8009030686B460122017970680F
:1029E0000078FFF715F8002835D10F2001F050FBD3
:1029F000B06A6B460122407A8DF800003068817819
:102A000070680078FFF704F8002824D1B06A6B469C
:102A10000122007A8DF800003068417870680078F3
:102A2000FEF7F6FF002874D1B06A807A0FB140F04B
:102A3000E0008DF8000030686B46012281797068F3
:102A40000078FEF7E5FF002863D12FB1B06AC07AA5
:102A500040F0E00001E049E018208DF80000306807
:102A60006B460122C17970680078FEF7D1FFE8BBA0
:102A700017B1C82001F00CFB40208DF80000306831
:102A80006B460122017970680078FEF7C1FF68BBD0
:102A900078208DF8000030686B460122417970681B
:102AA0000078FEF7B5FF08BB322001F0F1FA8DF88F
:102AB0000080306847466B46417970680122007893
:102AC000FEF7A6FF90B931687068B046897A007841
:102AD0006B460222FEF712FF40B9BDF80000AF605E
:102AE00040BAB0FBF9F0C6B26F6000E011E02F60B1
:102AF000A76067602760002739E000BFD8F80010A2
:102B0000D8F804006B46C97A00780C22FEF7F6FE6E
:102B100008B1504652E6BDF80000236840BA00B242
:102B2000BDF80210BDF804201844206049BA60685E
:102B300009B20844606052BAA06812B21044A060A2
:102B4000BDF806002B6840BA01B2BDF80800BDF818
:102B50000A201944296040BA696800B208446860D4
:102B600052BAA86812B210447F1CFFB2A860B742E4
:102B7000C4D328688322C117090441EA1041000424
:102B8000002307F07BFB3246002307F077FB286029
:102B900068688322C117090441EA10410004002338
:102BA00007F06CFB3246002307F068FB6860A868FA
:102BB0008322C117090441EA10410004002307F0F1
:102BC0005DFB3246002307F059FBA86020684FF4F4
:102BD0000065C117090441EA104100042A46002398
:102BE00007F04CFB3246002307F048FB206060688A
:102BF0002A46C117090441EA10410004002307F0E6
:102C00003DFB3246002307F039FB6060A0682A468E
:102C1000C117090441EA10410004002307F02EFB0C
:102C20003246002307F02AFBA060002802DDA0F551
:102C3000803001E000F58030A0600020BEE538B5AE
:102C4000124C94F8241081421ED0002518B394F839
:102C50002500E8B10020FEF7A5FF0020FFF791F85E
:102C6000E08CFFF763FA8DF8005060686B46012234
:102C700000782321FEF7CCFE012084F82400FEF723
:102C800091FF00BFFFF7E7F8002038BD5C0000208F
:102C90004FF0FF30F9E70020FEF784FF207C8DF82D
:102CA000000060686B46012200782321FEF7B0FE29
:102CB00084F82450E6E72DE9F047FA4C82468AB0C2
:102CC00094F824000F4620B10020FFF7B8FF01263A
:102CD00000E0002607A8FFF774FC06A8FFF789FCB0
:102CE00009A8FFF7A1FC08A8FFF7B8FC94F80A9020
:102CF00094F810800025002239465046FFF717FE51
:102D000010B16D1C022DF6DB022D1AD00025012218
:102D100003A96846FFF70BFE10B16D1C022DF6DB10
:102D2000022D0ED003A9384600F04BFBC7B269460E
:102D3000504600F07FFB10F0FF0F4FF0000502D06F
:102D400002E0002503E001250FB945F00205FF2050
:102D500020726072E0724FF6FF71E181A072207400
:102D600001202073BDF81C00FFF74FFA9DF81800F2
:102D7000FFF71AFABDF82400FFF74CF9BDF8200060
:102D8000FFF7D4F94846FEF7A3FF4046FFF71BF9CB
:102D900016B10120FFF753FF0AB02846BDE8F087BF
:102DA000F8B516000D464FF0FF371FD0BD4CA17A85
:102DB000E1B1010A8DF80010C0B28DF8010041198F
:102DC00060684289914211D8216800786B46097E7B
:102DD0000222FEF71DFE48B92068EAB23346417D63
:102DE00060680078FEF714FE002800D03846F8BD71
:102DF000F8B516000D464FF0FF371FD0A94CA17A49
:102E0000E1B1010A8DF80010C0B28DF8010041193E
:102E100060684289914211D8216800786B46097E2A
:102E20000222FEF7F5FD48B92068EAB23346417D3B
:102E300060680078FEF762FD002800D03846F8BDD3
:102E40002DE9FF4FDFF85C82064685B098F8250033
:102E500015460F464FF0FF39B0BBAFB3002420E05A
:102E6000301B102800DD102080B283463A1901463D
:102E700092462046FFF794FF30BB6A4659462046EB
:102E8000FFF7B6FF00BB50465A46694607F071FA95
:102E900020B16FF0010009B0BDE8F08F04EB0B002A
:102EA00084B2B442DCD3280A8DF810008DF811509A
:102EB000D8F80000444604AB817ED8F80400022212
:102EC0000078FEF7A5FD08B14846E4E7012084F844
:102ED00025000898E0840020DDE7724991F824106D
:102EE0000170002070474FF0FF3070474FF0FF3007
:102EF00070474FF0FF3070472DE9F84F694C0F468F
:102F000004F1160115004FF0FF3B8A464FF000090F
:102F10004FF0010877D0B0F5FF5F01D9FF2605E03B
:102F2000202801D2012601E0C0F3471607B9012786
:102F3000282D6AD8607DF0B994F8240028B10020CB
:102F4000FFF77DFE84F8208001E084F82090504651
:102F5000FFF737FB53481830FFF74BFB51481A3047
:102F6000FFF762FB4F481C30FFF778FBA07AA07791
:102F70004C48217CC1770020FEF714FE0020FFF7AB
:102F80007CF88DF8009020686B460122817860689B
:102F90000078FEF73DFD002837D140208DF8000075
:102FA00020686B460122C17B60680078FEF730FD27
:102FB00050BB8DF800608DF8017020686B460222CE
:102FC000017A60680078FEF723FDE8B9052001F07A
:102FD0005FF8607A072606EBC0008DF800002068D5
:102FE0006B460122C17960680078FEF711FD58B97F
:102FF00020208DF80000012D08D0052D0AD840466C
:103000008DF801800DE01DE01FE049E048468DF895
:10301000019006E0142D01D8022000E003208DF875
:103020000100C0B206EB80108DF8010020686B46ED
:103030000222817C60680078FEF7EAFC28B984F8F7
:10304000158027E000200A5C3AB3FF2020726072EE
:10305000E0724FF6FF71E181A072207484F80C8059
:10306000A07FFEF735FEE08AFFF7CFF8207EFFF75E
:103070009BF8608BFEF7CEFFA08BFFF757F8E07F41
:10308000FEF7A1FF94F8200010B10120FFF7D7FD53
:1030900084F815900020BDE8F88F401C0C28D2D38E
:1030A0005846F8E75C00002010B588B0694604A8CF
:1030B000FFF701FE032802D0012008B010BD07A8C9
:1030C000FFF7DEFA049807F0EBFB07990C4607F0D0
:1030D000CCF907F011FC0490059807F0E1FB2146BC
:1030E00007F0C3F907F008FC0590069807F0D8FB35
:1030F000214607F0BAF907F0FFFB069004A800F09C
:10310000E0FA03A8FFF7D2FABDF80C00009941439A
:10311000009101994143019102994143684602910E
:1031200000F031FB0020C8E790F90010002902DD13
:103130004FF00000704702DA4FF00400704790F93A
:103140000110002902DD4FF00100704702DA4FF054
:103150000500704790F90200002802DD4FF00200E0
:10316000704702DA4FF0060070474FF007007047D3
:1031700000B50246FFF7D8FF0346D01CFFF7D4FF87
:1031800043EAC003901DFFF7CFFF43EA801080B2EF
:1031900000BD10B5FFF76DF808B10A2010BD78200A
:1031A000FEF796FD10F0FF0F01D0012010BD782032
:1031B000FEF709FF10F0FF0F01D0022010BD6420C0
:1031C000FEF7B4FF10F0FF0F01D0032010BD00F098
:1031D000F5F910F0FF0F01D0042010BDED48FFF706
:1031E000C7FF00F0F3F910F0FF0F01D0052010BD6C
:1031F00040F2731000F03EFD10F0FF0F01D00620EA
:1032000010BD642000F026FB10F0FF0F01D0072056
:1032100010BDFFF749FF08B1082010BD0120FFF7DE
:103220000EFD10F0FF00F8D0092010BD2DE9F74F7A
:103230008EB00CA902A8CDE900010BAB03AA09A925
:1032400007A800F022FE10B1012011B024E6BDF85D
:103250000800C0057ED5039807F022FB6FF01D041F
:10326000214607F072F98246049807F019FB2146BF
:1032700007F06BF98146059807F012FB214607F02D
:1032800064F98046069807F00BFB214607F05DF9CC
:1032900005460121504607F058F90646414607F019
:1032A000E4F804464FF04041484607F0DEF8074690
:1032B000294607F0DAF8214607F07FF807F068FBA7
:1032C00008F058FD4FF0663B5A46B34B07F0F0F953
:1032D00007F0A2FB0E9908600121404607F035F97E
:1032E0004146009007F0C1F804463846494607F0C9
:1032F000BCF8214607F0B3F84FF07E5107F05DF8B7
:1033000007F046FB07460C463046494607F0ADF845
:1033100006462946009807F0A8F8314607F04DF810
:1033200007F036FB3A46234608F06CFF5A469A4BA4
:1033300007F0BEF907F070FB0F99086029460846B0
:1033400007F093F807464146084607F08EF8064610
:10335000494600E033E0084607F087F80446514646
:10336000084607F082F8214607F027F8314607F0B3
:1033700076F8394607F073F807F00AFB06460C4664
:103380002946504607F071F805464146484607F081
:103390006CF8294607F011F8012107F0D6F807F07C
:1033A000F7FA3246234608F02DFF5A467A4B07F0CB
:1033B0007FF907F031FB10990860002045E70220F3
:1033C00043E72DE9FE4F07460E460025684600F00C
:1033D00090F800246FF00F0AE8464FF0010900BF93
:1033E00057F8240056F82410401A00D5404207F040
:1033F00057FA514607F0A9F858F8241011F0FF4F7A
:103400000BD007F064F84FF07E5107F028F86349BD
:1034100020F00040884205DC07E06149084461492A
:10342000884202D309FA04F00543641C032CD7DB5D
:10343000284603E42DE9F84F8146564888462C3843
:10344000002540686B46032200780D21FEF756FAEE
:1034500008B107201FE69DF80000002400F01F00BF
:103460008DF800009DF801006FF00F0B00F01F00B9
:103470008DF801009DF802006E4600F01F008DF8E7
:1034800002004FF0010A00BF59F8241058F8240038
:10349000081A00D5404207F003FA594607F055F8DC
:1034A0000746305DC0B1404802E0404906F0DDFF0C
:1034B000315D491E11F0FF013155F6D10146384604
:1034C00007F005F84FF07E5106F0C9FF334920F0B0
:1034D0000040884205DC07E035483844B0F1D97F28
:1034E00002D90AFA04F00543641C032CCCDB2846FD
:1034F000D1E52DE9FE430646264801AB2C380422CF
:1035000040680D210078FEF7F9F910B10720BDE8F9
:10351000FE839DF804101C2000EAD1029DF80710DC
:10352000DFF89090C1F301131A438DF800209DF845
:103530000520C1F3810300EAD2021A438DF801206D
:103540009DF8062001F0030100EAD20008430024A0
:10355000194F8DF80200A0466D46285D10B146F85F
:1035600024900AE046F824800DE000BF56F82400BD
:10357000394606F07AFF46F82400285D401E10F018
:10358000FF002855F2D1641CE4B2032CE5D30020DF
:10359000BDE700008800002066A64C40295C0F3E75
:1035A000666666C19A99D9000000C84154E3853F18
:1035B0000000E0BE7B14AE3E1D5A843FC8234FF48A
:1035C0008062FE4940F6F630FFF73ABC2DE9FF4134
:1035D0000446FBA004F0030300680290F9A0006811
:1035E0000390F9A00668F9A0056802A8C15C8DF8EF
:1035F0000010C4F3C101425C8DF80120C4F38112B4
:10360000805C8DF8020003A8C35C8DF80430415C37
:103610008DF80510805C8DF806006A46032140F2A3
:103620002640FFF7BDFB4FF0FF37E0BB01AA0321A7
:1036300040F22A40FFF7B4FBA8BBCDE90065600764
:103640000BD59DF8000040F001008DF800009DF8BA
:10365000040040F001008DF80400A0060BD59DF891
:10366000010040F001008DF801009DF8050040F0D8
:1036700001008DF80500E0050BD59DF8020040F033
:1036800001008DF802009DF8060040F001008DF861
:1036900006006A4603214FF48860FFF781FB10B9EA
:1036A00001AA032100E004E040F23140FFF778FB7B
:1036B00018B1384604B0BDE8F081C5480481002047
:1036C000F8E7F8B5C249098901F0030250F8224031
:1036D0004A0700D56442C1F3C1028B0650F822208C
:1036E00000D55242C1F3811350F82330C80500D5EC
:1036F0005B42B84984FB0140850045EA947082FB37
:103700000142A40F44EA820483FB0121950F45EA9C
:103710008105010E8DF80010010C8DF80110010AD1
:103720008DF802108DF803006A4604214FF474707E
:10373000FFF736FB4FF0FF3688B9200E8DF80000FA
:10374000200C8DF80100200A8DF802008DF803404E
:103750006A4604214FF47570FFF722FB08B130462A
:10376000F8BD280E8DF80000280C8DF80100280AFD
:103770008DF802008DF803506A4604214FF47670EC
:10378000FFF70EFBF8BD2DE9FF41044603A8FEF745
:103790008DFFBDF80C00410CC3038D48008900F07B
:1037A000030254F82250420700D56D42C0F3C10213
:1037B000860654F8222000D55242C0F38116C00577
:1037C00054F8264000D56442A5FB0367E81700FBC8
:1037D000037005FB0100850045EA9670A2FB0367B4
:1037E000D51705FB037502FB0152950045EA967259
:1037F000A4FB0367E51705FB037304FB01318B0092
:1038000043EA9671030E8DF80030030C8DF80130F9
:10381000030A8DF802308DF80300100E8DF80400B5
:10382000100C8DF80500100A8DF80600080E8DF8B2
:103830000800080C8DF80900080A8DF80A008DF8B8
:1038400007208DF80B106A460C214FF42570FFF706
:10385000A7FA2FE730B504465FA285B007CA8DE806
:1038600007004FF0FF35C82C16D8C820B0FBF4F184
:10387000491E080A8DF80C008DF80D1003AA0221CC
:1038800040F21620FFF78CFA30B96A460C2140F658
:10389000C120FFF785FA10B1284605B030BD4C486D
:1038A00084810020F9E74A49898901800020704716
:1038B0002DE9FC41054640074FF0FF367CD0B1F5BD
:1038C000C86F79D8084606F0F4FF464906F0FFFDB8
:1038D000074601A8FEF78DFE9DF80400022806D0D9
:1038E00004280DD008282ED0102865D134E00E21F0
:1038F000384606F02AFE07F018F884B23A4907E085
:103900000D21384606F021FE07F00FF8374984B242
:10391000384606F0AAFD07F008F8210A8DF80010D5
:1039200080B28DF80140010A8DF802108DF8030075
:10393000E8076C4620D0224602214FF4EA70FFF7D8
:103940002FFAC8BB11E00C21384606F0FEFD06F048
:10395000ECFF84B22649DBE70B21384606F0F5FD83
:1039600006F0E3FF84B22349D2E7A21C02214FF400
:103970009270FFF715FAF8B9A8070DD56A4602212B
:103980004FF4EC70FFF70CFAB0B9A21C02214FF40F
:103990009470FFF705FA78B9680731D56A460221B5
:1039A0004FF4EE70FFF7FCF930B9A21C02214FF47E
:1039B0009670FFF7F5F91FE01FE0000008CB000844
:1039C0004CCD6C000CC92C0036567600264666009D
:1039D0007407002009E3CA02FEF2ABC4AAF1DFDFDC
:1039E000BBAFDFDF00004843000040460000C04599
:1039F000000040450000C04410B13046BDE8FC81E5
:103A00000020FBE708B500218DF80010C10702D0A7
:103A100030218DF80010810705D59DF8001041F088
:103A20000C018DF80010400705D59DF8000040F00E
:103A300003008DF800006A4601214FF4A470FFF7DF
:103A4000AFF908BD08B560B1042800D90420401EB4
:103A50008DF800006A46012140F24F10FFF7A0F9EF
:103A600008BD0120F3E70521B0FBF1F008B5010A1C
:103A70008DF800108DF801006A4602214FF4EF70B6
:103A8000FFF78EF908BD0521B0FBF1F008B5010A7A
:103A90008DF800108DF801006A4602214FF4ED7098
:103AA000FFF77EF908BD4FF47A7290FBF2F008B58B
:103AB0004843010E8DF80010010C8DF80110010A29
:103AC0008DF802108DF803006A4604214FF4AE70A1
:103AD000FFF766F908BD0521B0FBF1F008B5010A52
:103AE0008DF800108DF801006A4602214FF4AD7088
:103AF000FFF756F908BD0521B0FBF1F008B5010A42
:103B00008DF800108DF801006A4602214FF4AC7068
:103B1000FFF746F908BD38B504004FF0FF3506D071
:103B20006A4604214FF45870FFF762F908B128463D
:103B300038BDBDF800009DF8021040BA000440EA0C
:103B400001209DF8031008432060002038BD08B50F
:103B5000010E8DF80010010C8DF80110010A8DF88E
:103B600002108DF803006A4604214FF45870FFF7E5
:103B700017F908BD38B504004FF0FF3506D06A4686
:103B800004214FF47170FFF733F908B1284638BDAE
:103B9000BDF800009DF8021040BA000440EA012080
:103BA0009DF80310084300EB800080002060002097
:103BB00038BD1421B0FBF1F008B5010E8DF80010EE
:103BC000010C8DF80110010A8DF802108DF8030028
:103BD0006A4604214FF47170FFF7E2F808BD08B59A
:103BE00060B120208DF8000028208DF801003020E1
:103BF0008DF8020038208DF8030004E0A322042190
:103C0000684606F091FB6A46042140F69E20FFF7C5
:103C1000C7F8FEF720F908BD08B560B1C0208DF8DF
:103C20000000C2208DF80100C4208DF80200C620DB
:103C30008DF8030004E08B220421684606F074FB33
:103C40006A46042140F69820FFF7AAF8FEF703F928
:103C500008BD0EB54FF4976310B1E8A107C901E0A4
:103C6000E9A207CA8DE807006A4609211846FFF74E
:103C700097F80EBD3EB5044602208DF80000CA201C
:103C80008DF80100E3208DF8020009208DF8030073
:103C90006A4604216820FFF783F8A3208DF800000E
:103CA000610609D5C0218DF80110C8218DF80210D8
:103CB000C2218DF8031005E08DF801008DF8020097
:103CC0008DF8030014F4C07F09D0C4218DF80410CE
:103CD000CC218DF80510C6218DF8061005E08DF871
:103CE00004008DF805008DF806008DF808008DF8A9
:103CF00007008DF809006A460A2140F6A720FFF761
:103D00004FF8A0074FF0D80503D020208DF8000011
:103D100001E08DF800506A46012140F6B620FFF719
:103D20003FF8A00601D5012000E00020FFF791FF39
:103D300014F4C07F1ED0E0050AD5B2208DF8000033
:103D40008B208DF80100B6208DF802009B2009E041
:103D5000B0208DF8000080208DF80100B4208DF88F
:103D6000020090208DF803006A46042140F6A2204C
:103D7000FFF716F8E1074FF40B6022D0F8218DF819
:103D800000106A460121FFF70BF8FA210720FFF720
:103D90008FFD0720FFF736FE0120FFF753FE64205A
:103DA000FFF761FE4FF4FA70FFF76DFEC8219948E6
:103DB000FFF779FE2820FFF78EFE0A20FFF79BFE13
:103DC00005E08DF800506A460121FEF7E9FFA007E3
:103DD00003D5D9208DF8000001E08DF800506A4627
:103DE000012140F23D70FEF7DBFF600701D50120A5
:103DF00000E00020FFF710FFE00601D5012000E001
:103E00000020FFF7ECFE844D44F008006881FEF7C7
:103E100022F80020A873600601D50620A87314F4C8
:103E2000C07F02D0A87B801DA87314F0140F02D0AD
:103E3000A87B1030A873A00702D0A87B001DA87330
:103E400000203EBD7449498901800020704700B5BB
:103E500072A187B00EC98DE80E0073A10DF10C0C94
:103E60000EC98CE80E0040F68223012807D00228F4
:103E700003D04FF0FF3007B000BD6A4600E003AA50
:103E80000B211846FEF78CFFF5E72DE9FF4F89B0AF
:103E90001746DDE9165200245F4E884681462C8085
:103EA000A246B07B6946FEF7F8FC4FF0FF3B18B125
:103EB00058460DB0BDE8F08F708910F0140F4CD04B
:103EC000BDF800109DF8022049BA090441EA022316
:103ED0009DF803100B433B60BDF804109DF80620CD
:103EE00049BA090441EA02229DF807101B140A434B
:103EF0007A60BDF808109DF80A4049BA090441EA01
:103F000004219DF80B4012142143B960BDF80C4008
:103F10009DF80EC064BA240444EA0C2C9DF80F40AE
:103F200009144CEA040CC7F80CC04FEA2C475B4359
:103F3000494302FB023207FB071111441024A1F18F
:103F40007061B1F1007F04D9FDF785FFA5F800A0ED
:103F5000AEE7298841F4807129804206694611D56F
:103F60000A19A41D13885BBAA8F8003053885BBAFD
:103F7000A8F80230928852BAA8F804202A8842F0A1
:103F800008022A8010F4C07F11D00A19A41D1388DA
:103F90005BBAA9F8003053885BBAA9F8023092885E
:103FA00052BAA9F804202A8842F070022A808007B9
:103FB00016D00C44E07800F0C00500F03F016078B6
:103FC000C00706D0C80801F007013268491C02B1D9
:103FD00090476078000703D5716809B1A809884740
:103FE0000C98FEF7E1F9002063E70B490860002018
:103FF000704709494860002070470000B8AAB38D97
:10400000B4980D355D000000B8AAAAAAB088C3C54F
:10401000C700000009E3CA0274070020D8B1B9F351
:104020008BA391B609B4D900DAB1B9F38BA391B6D9
:10403000DAB4DA0010B56FF0040000F0D2FD2048C9
:1040400020490068B0FBF1F0C1B21F4801EB41020A
:104050000170C2EBC1114FF6FF7202EAC10141804B
:1040600010BD1949097848434FF0E021486100220A
:104070008A61086940F0010008610869C30701D03E
:10408000C003FAD5086920F0010008618A61704711
:104090000D49498848434FF0E021486100228A6178
:1040A000086940F0010008610869C30701D0C00336
:1040B000FAD5086920F0010008618A6170470000A4
:1040C0000C00002000127A00920000207047704718
:1040D00070B5054686B0012144F2040000F059FB9A
:1040E0004FF40070ADF8100003248DF81240182032
:1040F000334E8DF8130004A9304600F060F93015F6
:10410000ADF8100004208DF8130004A9304600F02B
:1041100056F925208DF814008DF815408DF81640BD
:1041200001208DF8170005A800F01BFD0020ADF858
:104130000400ADF80600ADF80800ADF80C000C2046
:10414000204CADF80A0000956946204600F0A0FB1F
:10415000012240F22551204600F017FC01212046A3
:1041600000F009FC06B070BD70B5164C40F2255148
:10417000204600F0C1FC00280ED0204600F055FC7F
:10418000C2B2114801880B0406D44C044FF000035E
:1041900006D50A2A01D0038070BD41F400410DE02C
:1041A0000D2A09D0C1F30D04084D491C89B22A55C6
:1041B0000180C729EFD870BD41F48041018070BDF6
:1041C00000080140003801409600002084070020CC
:1041D0003EB50121082000F0DCFA0121084600F07C
:1041E000D8FA0521012000F0A2F920200124009036
:1041F0008DF8064000208DF804000C208DF8050095
:10420000684601F077FC17208DF808008DF80B4008
:1042100002208DF8090004208DF80A0002A800F0A1
:10422000A0FC3EBD10B500F0A9F94FF48034204643
:1042300000F0BDF900F0E8F901281DD14FF4E011BC
:10424000204600F002FA002000F016FAA01100F05B
:104250001AFA002000F01EFA012000F0FEF93920C1
:1042600000F0BDF90028FAD0022000F0F9F900BFF3
:1042700000F0FDF90828FBD101214FF4037000F094
:1042800088FA0121BDE81040084600F082BA70B5F6
:10429000202001F07FFC002820D0114D202128464D
:1042A00000F0E7F8A8B90F4C207890B15020FFF744
:1042B000EFFE2021284600F0DCF800280ED1FFF7A1
:1042C000B1FF0020207005F0BDFC0121064801F07F
:1042D000ECFFBDE87040202001F06ABC70BD00001A
:1042E000000C01409C0000208B66000806488047B7
:1042F00006480047FEE7FEE7FEE7FEE7FEE7FEE7CB
:10430000FEE7FEE7FEE7FEE785050008ED00000892
:10431000914910B5884206D10121042000F04BFAE2
:10432000002104203BE08D49884206D1012108206C
:1043300000F041FA0021082031E08949884206D185
:104340000121102000F037FA0021102027E08549D4
:10435000884206D10121202000F02DFA00212020E2
:104360001DE08149884206D10121402000F023FA56
:104370000021402013E07D49884206D101218020A0
:1043800000F019FA0021802009E0794988420AD119
:1043900084150121204600F00EFA00212046BDE8D8
:1043A000104000F008BA10BD10B50121084600F019
:1043B00002FA0021BDE81040012000F0FCB9F0B580
:1043C000CA78002502F00F03D20601D58A7813437C
:1043D0000A784FF00F0E12F0FF0F4FF001021DD0C0
:1043E000D0F800400F8802FA05F63740B74211D1E5
:1043F0004FEA850C0EFA0CF724EA070703FA0CF4CF
:104400003C43CF78282F02D0482F02D002E04661EB
:1044100000E006616D1C082DE4D304600C88FF2CBD
:104420001ED944685FF0000606F1080702FA07F596
:104430000F882F40AF420FD14FEA860C0EFA0CF7CF
:10444000BC4303FA0CF73C43CF78282F00D14561D9
:10445000CF78482F00D10561761C082EE4D3446044
:10446000F0BD4FF6FF710180022181700421C170FF
:1044700070470246002092680A4200D0012070472F
:10448000806880B2704702460020D2680A4200D09D
:1044900001207047C06880B2704701617047416178
:1044A00070470AB10161704741617047C160704750
:1044B00041F48032826181618261816980697047E3
:1044C0002C4B10B51A684FF68074224042EA001057
:1044D0000843186010BD2849C8617047F0B5254CE5
:1044E000002801DAE36900E06368420D120185B239
:1044F000C0F301579540C0F30346032F05D0C20215
:104500000AD50322B240934307E023F07062636848
:1045100023F07063636002E0AB4343F0706201B16B
:104520002A43002801DAE261F0BD6260F0BD10B5F7
:104530008A0721F003040F49130F21440F228C68CE
:104540009A4094438C608A68984002438A6010BD08
:104550000949C1F8DC00704700080140000C014027
:10456000001001400014014000180140001C0140EF
:10457000002001400000014000002042A4480168E2
:1045800041F0010101604168A24A114041600168A7
:10459000A14A11400160016821F480210160416855
:1045A00021F4FE0141604FF41F018160704798497A
:1045B0000A6822F480320A600A6822F480220A60C3
:1045C000B0F5803F07D0B0F5802F03D1086840F4E4
:1045D000A02008607047086840F48030F9E7024680
:1045E000002053098A49012B0AD0022B0AD0496ABC
:1045F00002F01F02012393400B4200D001207047BC
:104600000968F5E7096AF3E718B500204FF4A064DC
:1046100000903120FFF7E3FF0099491C0091A1426F
:1046200001D00028F5D03120FFF7D9FF002800D0B5
:10463000012018BD76490A6822F0F80242EAC0005B
:1046400008607047754908607047714A53680843AD
:1046500023F47C1318435060704770490866704714
:104660006B4A516821F0030101435160704768486B
:10467000406800F00C007047654A516821F0F00175
:10468000014351607047624A516821F4E06101437F
:10469000516070475E494A6822F4605242EAC000A5
:1046A000486070475A4A0029517A01D0014300E01E
:1046B0008143517270475949C1F8D8007047544A34
:1046C000516821F440410143516070475049002234
:1046D00081F8202081F82020012802D0042802D16E
:1046E000052081F8200070474D490860704748490F
:1046F0000A6A02430A6270474949443908607047B0
:1047000030B543494A6812F00C03464A03D0042BE3
:1047100001D0082B21D002604A680F23424C03EAE3
:104720001212A35C0268DA4042604B68072505EA72
:104730001323E35C22FA03F383604B6805EAD32377
:10474000E35CDA40C2604968032303EA9131231F26
:10475000595CB2FBF1F1016130BD4A684B6802F46B
:1047600070124FF0020413F4803F04EB924202D027
:104770004B689B0301D52D4B00E02A4B5A43CAE7F7
:10478000234A0029516901D0014300E0814351616E
:1047900070471F4A0029916901D0014300E081431D
:1047A000916170471A4A0029D16901D0014300E0A4
:1047B0008143D1617047164A0029D16801D0014375
:1047C00000E08143D1607047114A0029116901D08E
:1047D000014300E08143116170471149403908608D
:1047E00070470E49C86470470949C8717047084846
:1047F000416A41F0807141627047054A01460020DC
:1048000092680A4200D001207047014988727047BF
:10481000001002400000FFF8FFFFF6FE00004242D9
:104820008004424200127A00A100002000093D00ED
:10483000C44910B588420AD101218C032046FFF7F4
:10484000BAFF2046BDE810400021FFF7B4BFBE49C3
:10485000884202D101214C0410E0BC49884202D1B7
:1048600001218C040AE0BA49884202D10121CC041A
:1048700004E0B84988420AD101210C052046FFF71F
:10488000A3FF2046BDE810400021FFF79DBF10BDEB
:1048900030B50446008A85B00D464CF6FF710840DD
:1048A000E98801432182A1894EF6F3100140A888CE
:1048B0002A8910436A890A431043A081A08A4FF6CF
:1048C000FF410840A9890143A1826846FFF718FF0C
:1048D0009C48844201D1039800E00298A189090410
:1048E00000EBC00101EB0010296801D5490000E090
:1048F0008900B0FBF1F06422B0FBF2F109010B0971
:104900006FF018056B4300EB8300A3891D044FF083
:10491000320306D503EBC000B0FBF2F000F0070055
:1049200005E003EB0010B0FBF2F000F00F000843CD
:10493000208105B030BD4FF4165101600021818007
:10494000C18001810C2242818181704710B5038AA8
:104950004FF2FF0213400A884C8822438C88C98892
:104960000C4322431A43028210BD00210180418082
:104970008180C18070470029818902D041F40051B3
:1049800001E021F400518181704710B5C1F3421359
:1049900001F01F040121A140012B07D0022B07D0F9
:1049A0001430002A026805D00A4304E00C30F8E70E
:1049B0001030F6E78A43026010BD002A828A01D0D7
:1049C0000A4300E08A4382827047028A22F00F0283
:1049D0000282028A0A4302827047828922F40062BC
:1049E000828182890A43828170470029818902D0AD
:1049F00041F0020101E021F0020181817047028A49
:104A000022F020020282028A0A43028270470029B1
:104A1000018A02D041F4804101E021F48041018209
:104A20007047C1F30801818070478088C0F3080097
:104A30007047818941F0010181817047028BD2B2B8
:104A40000283028B42EA012101837047028B02F448
:104A50007F420283028B0A43028370470029818AC6
:104A600002D041F0200101E021F020018182704755
:104A70000029818A02D041F0100101E021F01001EB
:104A8000818270470029818A02D041F0080101E04B
:104A900021F00801818270470029818902D041F408
:104AA000004101E0C1F30E01818170470029818A34
:104AB00002D041F4006101E021F40061818270477D
:104AC000828A22F004028282828A0A4382827047AA
:104AD0000029818A02D041F0020101E021F00201A7
:104AE000818270470246002012880A4200D00120CD
:104AF0007047C9430180704730B501F01F0201249F
:104B00000025C1F3421304FA02F2012B0FD0022B4D
:104B10000FD0838A4FEA11210088134204FA01F46E
:104B200000EA040001D000B10125284630BD838988
:104B3000F0E7038AEEE70A0A01219140C9430180A8
:104B40007047000000380140004400400048004029
:104B5000004C0040005000402849084328490860A4
:104B6000704770B50F23C47801780122F4B1244C4A
:104B70002468457804F4E064C4F5E064240AC4F1D0
:104B80000406E3408478B5401C402C4301F1E02149
:104B9000230181F80034007800F01F018A404009A9
:104BA000800000F1E020C0F8002170BD01F01F007E
:104BB00082404809800000F1E020C0F8802170BDEB
:104BC000104A114001430E48001F016070470C4A13
:104BD000121D0029116801D0014300E081431160DA
:104BE00070474FF0E0210428086903D020F004004A
:104BF0000861704740F00400FAE700000000FA0581
:104C00000CED00E080FFFF1FF94910B5884202D18A
:104C10000121C41486E0B0F1804F09D0F5498842E3
:104C20000DD101210220FFF7CFFD0021022064E019
:104C300001210846FFF7C8FD002101205DE0EE4993
:104C4000884206D101210420FFF7BEFD0021042087
:104C500053E0EA49884206D101210820FFF7B4FD5C
:104C60000021082049E0E649884206D101211020B0
:104C7000FFF7AAFD002110203FE0E249884206D15B
:104C800001212020FFF7A0FD0021202035E0DE4992
:104C9000884202D10121441444E0DC49884202D117
:104CA0000121CC043EE0DA49884202D101210C0501
:104CB00038E0D849884202D101214C0532E0D6497A
:104CC000884206D101214020FFF77EFD00214020CF
:104CD00013E0D249884206D101218020FFF774FDFC
:104CE0000021802009E0CE4988420AD184150121A3
:104CF0002046FFF769FD00212046BDE81040FFF780
:104D000063BDC849884202D101210C040AE0C649AA
:104D1000884202D101214C0404E0C44988420AD1EE
:104D200001218C042046FFF746FD2046BDE81040D7
:104D30000021FFF740BD10BD30B50288AC4BB24C2E
:104D400098420DD0A0420BD0B0F1804F08D0A94DB1
:104D5000A84205D0A84DA84202D0A84DA84203D130
:104D600022F070054A882A43A54DA84206D0A54DD9
:104D7000A84203D022F44075CA882A4302808A8858
:104D800082850A88028598420AD0A04208D0A54AA6
:104D9000904205D0A44A904202D0A44A904201D148
:104DA000097A01860121818230BD30B5028C22F062
:104DB00001020284028C8388048B22F0020224F018
:104DC00073050C882C430D8915434A882A43884D66
:104DD000A8420BD08C4DA84208D0924DA84205D0D5
:104DE000914DA84202D0914DA8420DD122F0080564
:104DF0004A8923F440732A4322F004058A882A430F
:104E00008D891D43CB892B4383800483C988818688
:104E1000028430BD70B5028C22F010020284028C34
:104E20008488038B0D8823F4E6464FF6FF7303EA6C
:104E3000052535430E8922F0200203EA06161643A3
:104E40004A8803EA02123243694EB04202D06E4EE3
:104E5000B04215D122F080064A8924F4406403EA66
:104E60000212324322F040068A8803EA02123243D9
:104E70008E8903EA86062643CC8903EA84043443F8
:104E800084800583C9880187028470BD70B5028C57
:104E900022F480720284028C8488838B0D8823F034
:104EA00073031D4322F400730E894FF6FF7202EA6A
:104EB00006261E434B8802EA032333434C4EB0427E
:104EC00002D0514EB04215D123F400664B8924F430
:104ED000405402EA0323334323F480668B8802EABA
:104EE000032333438E8902EA06162643CC8902EA5D
:104EF0000414344384808583C9888187038470BD0A
:104F000070B5028C22F480520284048C8288838BD8
:104F10000D8823F4E6464FF6FF7303EA0525354373
:104F200024F400560C8903EA043434434E8803EA1F
:104F3000063626432E4CA04202D0334CA04205D167
:104F400022F480448A8903EA821222438280858384
:104F5000C988A0F84010068470BD828B22F440629C
:104F60008283828B4FF6FF7303EA01210A43828317
:104F70007047828B22F00C028283828B0A438283E9
:104F80007047028B22F440620283028B4FF6FF735C
:104F900003EA01210A4302837047F0B5048C24F030
:104FA00010040484078B048C4FF6FF7527F47347B5
:104FB00005EA03333B4305EA02221A430C4B05EA98
:104FC000011698420ED0104B98420BD0B0F1804F92
:104FD00008D0084B984205D0074B984202D0074BA7
:104FE000984225D124F02001314341F0100124E002
:104FF000002C01400004004000080040000C00406C
:10500000001000400014004000340140004C0140FA
:10501000005001400054014000180040001C0040B6
:105020000020004000400140004401400048014091
:1050300024F0A0030B4343F0100102830184F0BD70
:10504000028B22F00C020283028B0A430283704718
:1050500070B5048C24F001040484058B048C4FF695
:10506000FF7606EA0313134325F0F305F94A2B43B1
:1050700090420ED0F84A90420BD0B0F1804F08D049
:10508000F64A904205D0F64A904202D0F54A904244
:1050900002D124F0020201E024F00A020A4342F0A5
:1050A00001010383018470BD2DE9F05F0D460446C4
:1050B0000888E84FDFF8A0C3DFF8A0834988AA88F2
:1050C0002B894FF0804960B3042832D04FF6FF7E21
:1050D000082836D0208C9B4620F480502084A38B57
:1050E000268C704600EA022223F473431A4300EA36
:1050F0000B3010430EEA013EBC420BD0644509D090
:105100004C4507D0444505D0D54A944202D0D54BF2
:105110009C4245D126F4005141EA0E0141F48051F0
:1051200043E02046FFF794FFE9882046BDE8F05FA2
:1051300086E72046FFF731FFE9882046BDE8F05FAB
:105140001FE7208C20F480702084B4F81CA0208CF1
:105150000EEA031313432AF0F30A0EEA012B43EA83
:105160000A03BC420BD0644509D04C4507D04445E6
:1051700005D0BB4A944202D0BA4A944204D120F4EA
:10518000007040EA0B0002E020F42060084340F485
:105190008070A3832084E9882046BDE8F05FE8E6BC
:1051A00026F402420A4342F48051A083204621841F
:1051B000E988BDE8F05FD0E62DE9F0410C46002615
:1051C00049880746012501B90226A288012A00D193
:1051D0000225208823890028384610D0FFF7DDFEFD
:1051E000E1883846FFF7CDFE23892A463146384606
:1051F000FFF72EFFE1883846BDE8F04120E7FFF7D2
:1052000027FFE1883846FFF71BFF23892A463146EE
:105210003846FFF7C2FEE1883846BDE8F041B0E607
:1052200010B50A884B88CC881A438B8823431A43CD
:105230000B891A434B8989891A430A43A0F84420F1
:1052400010BD4FF6FF71818000210180C180418037
:10525000017270470021018041808180C1800181FD
:1052600041818181C18170470021018041800122FB
:105270008280C1800181704700210180418081804E
:10528000C18001814181818170470029018802D05C
:1052900041F0010101E021F0010101807047002986
:1052A00030F8441F02D041F4004101E0C1F30E0187
:1052B00001807047002A828901D00A4300E08A43B6
:1052C00082817047818270471143A0F8481070476F
:1052D000002A828901D00A4300E08A438281704714
:1052E000018921F0070101817047028922F07002D3
:1052F0000A430281704700B50346FFF7F6FF18899D
:1053000040F00700188100BD70B516460D466029B3
:1053100004464FF0010231460AD0FFF799FE2946B4
:105320002046FFF7E2FF208940F00700208170BD92
:10533000FFF733FEF3E730B504894FF6FF7505EA52
:1053400003231343E4B20B432343038130BD10B561
:105350000446FFF7F0FF208940F07700208110BD60
:1053600010B50446FFF7E7FF208940F48040208114
:1053700010BD018582827047028822F070020A43C4
:105380000280704770B50589048B068C25F00705EF
:105390000D434FF6FC410C4040F201110C434FF617
:1053A000FF7101EA031126F0220611433143058102
:1053B0000483018470BD028B22F070020A430283D1
:1053C0007047028B4FF6FF7322F4E04203EA01219B
:1053D000114301837047828B22F070020A4382835B
:1053E0007047828B4FF6FF7322F4E04203EA0121FB
:1053F0001143818370470029018802D041F0800168
:1054000001E021F08001018070470029818802D0ED
:1054100041F0040101E021F004018180704700297E
:10542000818802D041F0080101E021F0080181806B
:1054300070470029818802D041F0010101E021F08C
:10544000010181807047028B22F008020A43028327
:1054500070470000002C014000340140000400406F
:1054600000080040000C0040028B4FF6FF7322F44E
:10547000006203EA012111430183E9E7828B22F0F4
:1054800008020A438283E3E7828B4FF6FF7322F41C
:10549000006203EA012111438183D9E7028B22F0E4
:1054A00004020A430283D3E7028B4FF6FF7322F410
:1054B000806203EA012111430183C9E7828B22F054
:1054C00004020A438283C3E7828B4FF6FF7322F400
:1054D000806203EA012111438183B9E7028B22F044
:1054E00080020A430283B3E7028B4FF6FF73C2F3D5
:1054F0000E0203EA012111430183A9E7828B22F006
:1055000080020A438283A3E7828B4FF6FF73C2F3C4
:105510000E0203EA01211143818399E7028C22F0F4
:1055200002020A43028493E7028C22F008020A4333
:1055300002848DE7028C4FF6FF7322F0200203EA0B
:1055400001111143018483E7028C4FF6FF7322F0AF
:10555000800203EA01111143018479E7028C4FF6BE
:10556000FF7322F4007203EA0121114301846FE703
:10557000028C4FF6FF7322F4006203EA012111430B
:10558000018465E7028C4FF6FF7322F4005203EAB0
:105590000131114301845BE710B50123048C8B407A
:1055A0009C430484038C8A401343038410BD10B5CC
:1055B0000423048C8B409C430484038C8A40134353
:1055C000038410BD30B50124058C00F118038C4014
:1055D000A543058489B108290FD0091FC1F34E00E6
:1055E0001844016821F4E041016001684FF6FF733F
:1055F00003EA02221143016030BD03EB5100016850
:1056000021F0700101600168F4E70029018802D0EF
:1056100041F0020101E021F00201018018E70029B8
:10562000018802D041F0040101E021F00401018071
:105630000EE70029818802D041F0800101E021F0CD
:105640008001818004E7028822F00802028002883B
:105650000A430280FCE6828822F0700282808288FF
:105660000A438280F4E6028922F00702028102895D
:105670000A430281ECE6028922F08002028102895B
:105680000A430281E4E68184E2E68185E0E68186E0
:10569000DEE60187DCE68187DAE6A0F84010D7E68F
:1056A000028822F44072028002880A430280CFE618
:1056B000808ECDE6008FCBE6808FC9E6B0F8400043
:1056C000C6E6808CC4E6008DC2E602460020128A3F
:1056D0000A4200D00120BBE6C9430182B8E6024677
:1056E0000020138A92890B4202EA010202D0002AAA
:1056F00000D00120ACE6C9430182A9E6C54910B536
:10570000884202D1012144150AE0C349884202D1EE
:105710000121041504E0C14988420AD10121CC03CA
:105720002046FFF748F82046BDE810400021FFF76B
:1057300042B810BD10B54268B94B0C791A400B68DD
:1057400042EA0422134343608368B64A1340D1E916
:10575000024222434C7943EA44031A438260C26AFC
:10576000097C22F47002491EC9B242EA0151C162A9
:1057700010BD00210160017141718160C160012192
:10578000017470470029816802D041F0010101E0F5
:1057900021F00101816070470029816802D041F445
:1057A000807101E021F4807181607047002A4268B5
:1057B000C9B201D00A4300E08A4342607047816861
:1057C00041F008018160704701460020896809079F
:1057D00000D501207047816841F004018160704765
:1057E000014600208968490700D50120704700293B
:1057F000816802D041F4A00101E021F4A0018160A0
:105800007047014600208968490200D50120704791
:105810004268491E22F4604242EA413141607047C9
:105820000029416802D041F4006101E021F40061E7
:105830004160704770B5072409290AD9C568A1F1EC
:105840000A0606EB4606B440A543B3401D43C560B7
:1058500007E0056901EB4106B440A543B3401D4391
:1058600005611F23072A09D2446B521E02EB8202F4
:1058700093409C4391400C43446370BD0D2A09D270
:10588000046BD21F02EB820293409C4391400C4375
:10589000046370BDC46A0D3A02EB820293409C43DC
:1058A00091400C43C46270BD0029816802D041F46C
:1058B000801101E021F4801181607047C06C80B2DA
:1058C000704754484C30006870470029416802D046
:1058D00041F4806101E021F480614160704700295A
:1058E000416802D041F4805101E021F480514160CF
:1058F0007047826822F4E0420A43826070470029C0
:10590000816802D041F4004101E021F4004181604E
:1059100070470029816802D041F4021101E021F4AE
:10592000021181607047014600208968890200D514
:105930000120704770B5072409290AD9C568A1F16B
:105940000A0606EB4606B440A543B3401D43C560B6
:1059500007E0056901EB4106B440A543B3401D4390
:105960000561836BC3F30154121B921C02EB82048A
:105970001F22A2409343A1400B43836370BD826BFF
:10598000491E22F4401242EA01518163704708B572
:1059900008440090026008BD08B508442830009013
:1059A000006880B208BD42681F4B1A400A4342603B
:1059B0007047416282627047426822F01F020A43C8
:1059C00042607047134908310028086802D040F44B
:1059D000000001E020F4000008607047024600204B
:1059E00012680A4200D001207047C9430160704725
:1059F00010B50246002054680B0AC9B20C40116869
:105A0000194202D0002C00D0012010BD6FEA1121F4
:105A1000016070470024014000280140003C014023
:105A2000FFFEF0FFFDF7F1FFFFFD3FFF10B5012185
:105A30000C072046FEF7C8FE2046BDE810400021B6
:105A4000FEF7C2BE214908627047204908617047CD
:105A50001F4A116821F0E0010143116070471B49A2
:105A6000C1F8A00070471A4B1A6822F003020243E3
:105A70001A601848026842F004020260012905D049
:105A800020BF016821F004010160704730BFF8E7D2
:105A90000F48016841F004010160016841F0020112
:105AA00001600C48016841F00401016030BF70479B
:105AB000074A0146002052680A4200D00120704780
:105AC00003490A6842EA80000860704700000E42FD
:105AD0000070004010ED00E0374900200860091D0B
