:0C00D9007F047ECD7DBBDDFEDEFCDFFA87
:0100E50022F8
:10008E00E4F50AF50B1200D9050BE50B7002050A13
:10009E007508007509FF7B017A00900000AE0AAF6B
:1000AE000B7C007D08120003C3E5829DEC6480F892
:1000BE00E583648098500AEB25E0FBEA33FAA380CF
:0B00CE00DCE5096BF5A01200D980BA38
:030000000200E615
:0C00E600787FE4F6D8FD75810B02008ED7
:10000300C2D5EC30E709B2D5E4C39DFDE49CFCEE18
:1000130030E715B2D5E4C39FFFE49EFE120039C357
:10002300E49DFDE49CFC800312003930D507C3E452
:060033009FFFE49EFE2287
:10003900BC000BBE0029EF8DF084FFADF022E4CCAB
:10004900F875F008EF2FFFEE33FEEC33FCEE9DEC74
:10005900984005FCEE9DFE0FD5F0E9E4CEFD22EDBA
:10006900F8F5F0EE8420D21CFEADF075F008EF2F04
:10007900FFED33FD4007985006D5F0F222C398FDF5
:050089000FD5F0EA2292
:00000001FF
