:0400FF007F147E00EC
:10010300EF1FAC0670011E4C600A7D027CEFDCFE23
:04011300DDFC80ECA3
:0101170022C5
:10008E00E4FBFA20B1101200FF30B1FD1200FF0B9D
:10009E00BB00010A801C20B0191200FF30B0FD1207
:1000AE0000FFEB1B70011AC3EA648094805003E4D6
:1000BE00FAFB7508007509FF750A00750B019000B3
:1000CE00007C007D08AF03AE02120003C3E5829DE3
:1000DE00EC6480F8E583648098500EE50B25E0F51E
:1000EE000BE50A33F50AA380D8E509650BF5A08068
:0100FE00926F
:03000000020118E2
:0C011800787FE4F6D8FD75810B02008EA4
:10000300C2D5EC30E709B2D5E4C39DFDE49CFCEE18
:1000130030E715B2D5E4C39FFFE49EFE120039C357
:10002300E49DFDE49CFC800312003930D507C3E452
:060033009FFFE49EFE2287
:10003900BC000BBE0029EF8DF084FFADF022E4CCAB
:10004900F875F008EF2FFFEE33FEEC33FCEE9DEC74
:10005900984005FCEE9DFE0FD5F0E9E4CEFD22EDBA
:10006900F8F5F0EE8420D21CFEADF075F008EF2F04
:10007900FFED33FD4007985006D5F0F222C398FDF5
:050089000FD5F0EA2292
:00000001FF
